:1000000004308A000F2C000054323A00D4363A00F3
:100010003B3084008313000803191B280230F800CA
:10002000F701F70B1128F80B10289730F700F70BA2
:100030001728800B0E280800420EF039F7000F3009
:1000400008057704880000000814262827280810CF
:1000500008000808F700080E0F39F800080083169A
:10006000081088100811831288100F3083160805B5
:10007000F0388800831208150000081400002920B9
:100080007808C200081000000814462829207808C3
:10009000C10008100F308316080588008312420E35
:1000A000F700F030F70577084104F8007808C10040
:1000B000C11B35283F1C88103F1888140000081108
:1000C00000000810400EC1000F30C1054108C200F9
:1000D0001C2040080F39C100C2001C200800283035
:1000E000AE000C30AF000130B0000630B100081097
:1000F000881008110F308316080588000810881032
:1001000008110F308312BB0008200130AD002D080C
:10011000033C031C93280330C2001C200530BB00A5
:100120000820AD0A87280230C2001C200530BB0021
:100130000820AD012D08033C031CAA282E302D07F2
:10014000840083130008B200BF013208C0002F20D2
:10015000AD0A9A288A110A122F2C8E30F7002E0829
:10016000F8002D08F900FA01F808031DC1287908E4
:10017000F800F9010830F702F808031DC128F7015B
:10018000C9280310F81BC828F90DF80DF703C1287A
:10019000F81308003A0803193A29C2003E08031967
:1001A0003A29C2070318DB287F30C202031C3A2910
:1001B00003193A29DF288130C20703183A29420877
:1001C000F700F801F901FA013B08C600C6173C0820
:1001D000C5003D08C4001830C200C301441C0829F2
:1001E0004108FA07031CFA28F90A031DFA28F80A3D
:1001F0000319C3174008F907031C0129F80A03195A
:10020000C3173F08BC00BC173C08F8070318C31706
:10021000C30DF80CF90CFA0CC60CC50CC40C031079
:10022000C20BED280130F70703183A29F81B1F29E4
:10023000C60DFA0DF90DF80DF70303193A29C61F7B
:100240003029FA0A031D3029F90A031D3029F80A5A
:10025000031D3029F80CF90CFA0CF70A03193A2996
:100260003B08C3003F08C306C31F3829F8173E29BF
:10027000F8133E29F701F801F901FA0108003108E5
:100280000319042ABD0035080319042ABD02031C02
:100290004E297F30BD070318042A54298130BD023E
:1002A000031C042A0319042A3D08F700F801F90188
:1002B000FA01BC013208BB00BB173308BA0034088E
:1002C000B9001930BD003808B90203187729013088
:1002D000BA0203187729BB0203187729BC02031856
:1002E0007729BC0ABB0ABA0A3808B907A92937080E
:1002F000BA02031892290130BB0203189229BC02EA
:1003000003189229BC0ABB0A3708BA073808B9078C
:10031000031CA929BA0A031DA929BB0A031DA9297F
:10032000BC0AA92936088038BB020318A829013065
:10033000BC020318A829BC0A36088038BB07370856
:10034000BA07031C8629BB0A031D8629BC0A862915
:100350007A14BD0BAC29B7290310B90DBA0DBB0D2A
:10036000BC0D0310FA0DF90DF80DBE0D63293E1CEE
:10037000BF290310F80CF90CFA0CBE0CC229F703C4
:100380000319042ABE1BEB290310B90DBA0DBB0DCE
:10039000BC0D3808B9020318D7290130BA02031876
:1003A000D729BB020318D729BC02031CFA29370836
:1003B000BA020318E2290130BB020318E229BC0289
:1003C000031CFA2936088038BB020318EB290130D8
:1003D000BC02031CFA29FA0A031DFA29F90A031DB3
:1003E000FA29F80A031DFA29F70A0319042AF80C56
:1003F000F90CFA0C3208BD003608BD06BD1F022AF2
:10040000F817082AF813082AF701F801F901FA0188
:100410008A110A12B22C3C0B0E2A112A4030BD0060
:10042000122ABD0101303B02BD073D088038BE00E5
:10043000BF013E08C0002F2008003A08073A031900
:100440002B2A0B3A0319302A063A0319382A023AA2
:1004500003193E2A432A0130BB00BC000B22482A64
:10046000BF010130C0002F200230BB000820482A05
:100470000130BB000230BC000B22482ABF01103003
:10048000C0002F20482A0130BF003A08C0002F20AA
:1004900008000B08AD008B13831603178C170C1480
:1004A0000000000083120313AD1B8B1703170C0809
:1004B0007F3903199D2A0313AD0003170D08031399
:1004C000AE0003170F080313AF002D08BA001D225A
:1004D0002E0803178D0003132F0803178F00031333
:1004E0000B08B0008B13831603178C170C14000035
:1004F000000083120313B01B8B1703170C0D0E0D96
:100500007F3903199D2A0313AD0003170D08031348
:10051000AE0003170F080313AF002D08BA001D2209
:100520002E0803178D0003132F0803178F008D0A61
:1005300003198F0A0313492A0317031308008318AA
:10054000A42A423084008313F701F801F901FA016B
:10055000C201C301C401C501410840043F043E0477
:100560000319E22A2030C6000310BA0DBB0DBC0DE2
:10057000BD0DC20DC30DC40DC50D41084502031DBF
:10058000CB2A40084402031DCB2A3F084302031D27
:10059000CB2A3E084202031CDC2A3E08C2023F0866
:1005A000031C3F0FC3024008031C400FC402410854
:1005B000031C410FC5020314F70DF80DF90DFA0DD8
:1005C000C60BB42A42088000840A43088000840ACB
:1005D00044088000840A4508800008000408B2002E
:1005E0003108B40003190D2B3008BD002F08BC00E2
:1005F0002E08BB002D08BA00C101C0012030BF0089
:100600008230BE00CA207A08B0007908AF007808AE
:10061000AE007708AD00B40BF42A3008BD002F08F7
:10062000BC002E08BB002D08BA003A08B63CBA0040
:10063000FA013B08BE00BB170310BB0CBC0CBD0C81
:10064000FA0CF90CF80CF70CBA0B1C2BBE1F332B51
:10065000F709F809F909FA09F70A0319F80A031959
:10066000F90A0319FA0A7A08B0007908AF00780885
:10067000AE007708AD00B01F4A2BB203B216AD0929
:10068000AE09AF09B009AD0A0319AE0A0319AF0AE2
:100690000319B00A3B30B9009A30B800CA30B7002D
:1006A000B6010A30B40031080319B20A83142D30A0
:1006B000840083133008BD002F08BC002E08BB0047
:1006C0002D08BA003908C1003808C0003708BF003B
:1006D0003608BE009F227808F708031D822B310AD6
:1006E00034020319822B32080319842B0F39340288
:1006F00003197C2B0318B42BB21BB42B321B842B95
:100700002030B02B2030B205B21E922BB21231082D
:10071000031DB2037708B2002D30BA001D22320843
:10072000F700B20131083402031DA02B7708B20094
:100730002E30BA001D223208F7002030B2050030FA
:100740003030B21EB02BB2123108031DB20377084D
:10075000B2002D30BA001D223208F700B20130304D
:10076000F7077708BA001D2283103908BD00380842
:10077000BC003708BB003608BA00C101C001BF0188
:100780000A30BE009F227A08B9007908B8007808BC
:10079000B7007708B600B40B562B08002E08B5003A
:1007A0003208B506B51FD92B03110310AE1B031475
:1007B0000C2C2E08B5003108B6002D08B60203191E
:1007C000E72BB51F0C2C0308013A83000C2C3208D0
:1007D000B6002E08B6020319F32BB51F0C2C030824
:1007E000013A83000C2C3308B6002F08B602031917
:1007F000FF2BB51F0C2C0308013A83000C2C340886
:10080000B6003008B60203190B2CB51F0C2C0308D8
:10081000013A83000C2C03108A110A12122D0308CE
:100820001F3983008316031787110C3003139900B7
:10083000A23098009030831298008316031709089D
:10084000C039890003131F129F120030031788005C
:100850008312870188018901831303136F281F17EF
:100860009F1783169F1783121F14831603170908F7
:10087000C039890003131F129F1203300317880029
:100880000430F800831203131F08C33978049F0053
:100890000130BB0008209F149F184C2C83161E08A3
:1008A0008312A3001E08A4000130BB000820003002
:1008B000F8001F08C33978049F000130BB000820EE
:1008C0009F149F18612C83161E088312A1001E0816
:1008D000A2000130BB0008202408AE002308AD00B0
:1008E000AD207A08BD007908BC007808BB00770805
:1008F000BA00C101C0014830BF007B30BE00CA2031
:100900007A08A8007908A7007808A6007708A5004B
:100910002208AE002108AD00AD20BD01BC017A3037
:10092000BB008730BA007A08C1007908C000780897
:10093000BF007708BE00CA207A08B0007908AF006F
:100940007808AE007708AD007A08B4007908B300E3
:100950007808B2007708B100B801B701B601893054
:10096000B5003F297A08AC007908AB007808AA00E6
:100970007708A9000130BB00BC000B22043003172C
:100980008D0000308F00031349220530BB00013079
:10099000BC000B22013084002808B0002708AF00FB
:1009A0002608AE002508AD000130B100EE2220304F
:1009B000BA001D224330BA001D220130BB000230B4
:1009C000BC000B22063003178D0000308F0003138C
:1009D00049220530BB000230BC000B2201308400EC
:1009E0002C08B0002B08AF002A08AE002908AD0083
:1009F0000130B100EE222030BA001D224330BA008F
:100A00001D222808B0002708AF002608AE002508E0
:100A1000AD002C08B4002B08B3002A08B200290846
:100A2000B100CE2B0318162D031D1B2D83160610A7
:100A3000831206101F2D83160610831206148316C8
:060A40000317402C6300C7
:04400E00D420FF3F7C
:00000001FF
;PIC16F887
;CRC=BCD5  CREATED="29-mar.-17 17:03"
